{
  "transactions": [
    {
      "hash": "0xa6b4d084f4ef74fc5c89c358ec73db9c6b0cd6d846c0ae8bbda26b70c49e37e2",
      "transactionType": "CREATE",
      "contractName": "InvariantContract",
      "contractAddress": "0x117d03d41d7145682d30192b4557C80520b69aEF",
      "function": null,
      "arguments": null,
      "transaction": {
        "type": "0x02",
        "from": "0x4ff023009f6f8782e7b1012760d8f321dfaaa61a",
        "gas": "0x3fd1a",
        "value": "0x0",
        "data": "0x6080604052348015600f57600080fd5b5060c8600055610246806100246000396000f3fe608060405234801561001057600080fd5b50600436106100625760003560e01c80632e1a7d4d14610067578063867378c51461007c578063b69ef8a814610097578063b6b55f25146100a0578063db11851e146100b3578063f887ea40146100e3575b600080fd5b61007a610075366004610185565b61010e565b005b610084606481565b6040519081526020015b60405180910390f35b61008460005481565b61007a6100ae366004610185565b610174565b61007a6100c136600461019e565b600180546001600160a01b0319166001600160a01b0392909216919091179055565b6001546100f6906001600160a01b031681565b6040516001600160a01b03909116815260200161008e565b80600054101561015b5760405162461bcd60e51b8152602060048201526014602482015273496e73756666696369656e742062616c616e636560601b604482015260640160405180910390fd5b8060008082825461016c91906101e4565b909155505050565b8060008082825461016c91906101fd565b60006020828403121561019757600080fd5b5035919050565b6000602082840312156101b057600080fd5b81356001600160a01b03811681146101c757600080fd5b9392505050565b634e487b7160e01b600052601160045260246000fd5b818103818111156101f7576101f76101ce565b92915050565b808201808211156101f7576101f76101ce56fea26469706673582212209fd8d80baffb18705a6ec5f216255c0a78df690f11454f26f781e6158009c4d464736f6c634300081a0033",
        "nonce": "0x2d2",
        "accessList": []
      },
      "additionalContracts": [],
      "isFixedGasLimit": false
    },
    {
      "hash": "0x2058c882e166a1aeda3998752120ef4951a53b46847039212de0fcc4f8cdd401",
      "transactionType": "CALL",
      "contractName": "FireWallDeployer",
      "contractAddress": "0x138750fe5Ec71a2Ce58C36baa48d1Eb32e40D17d",
      "function": "setProject(address,bytes4,string[],address[])",
      "arguments": [
        "0x117d03d41d7145682d30192b4557C80520b69aEF",
        "0x2e1a7d4d00000000000000000000000000000000000000000000000000000000",
        "[\"uint256\"]",
        "[0x7F392d55cb27C1124626bEfd4475F728285eBC5C]"
      ],
      "transaction": {
        "type": "0x02",
        "from": "0x4ff023009f6f8782e7b1012760d8f321dfaaa61a",
        "to": "0x138750fe5ec71a2ce58c36baa48d1eb32e40d17d",
        "gas": "0x4e34f",
        "value": "0x0",
        "data": "0x70588565000000000000000000000000117d03d41d7145682d30192b4557c80520b69aef2e1a7d4d000000000000000000000000000000000000000000000000000000000000000000000000000000000000000000000000000000000000000000000080000000000000000000000000000000000000000000000000000000000000010000000000000000000000000000000000000000000000000000000000000000010000000000000000000000000000000000000000000000000000000000000020000000000000000000000000000000000000000000000000000000000000000775696e743235360000000000000000000000000000000000000000000000000000000000000000000000000000000000000000000000000000000000000000010000000000000000000000007f392d55cb27c1124626befd4475f728285ebc5c",
        "nonce": "0x2d3",
        "accessList": []
      },
      "additionalContracts": [],
      "isFixedGasLimit": false
    }
  ],
  "receipts": [
    {
      "transactionHash": "0xa6b4d084f4ef74fc5c89c358ec73db9c6b0cd6d846c0ae8bbda26b70c49e37e2",
      "transactionIndex": "0x3",
      "blockHash": "0x5cdeb178d9ee99bcd88763013d15b616ac913a26de1246bb2ae4d4a59f038674",
      "blockNumber": "0x6e038c",
      "from": "0x4fF023009f6f8782E7B1012760D8F321DfAAa61A",
      "to": null,
      "cumulativeGasUsed": "0x7f87a",
      "gasUsed": "0x3119f",
      "contractAddress": "0x117d03d41d7145682d30192b4557C80520b69aEF",
      "logs": [],
      "status": "0x1",
      "logsBloom": "0x00000000000000000000000000000000000000000000000000000000000000000000000000000000000000000000000000000000000000000000000000000000000000000000000000000000000000000000000000000000000000000000000000000000000000000000000000000000000000000000000000000000000000000000000000000000000000000000000000000000000000000000000000000000000000000000000000000000000000000000000000000000000000000000000000000000000000000000000000000000000000000000000000000000000000000000000000000000000000000000000000000000000000000000000000000000",
      "type": "0x2",
      "effectiveGasPrice": "0xfb61b726"
    },
    {
      "transactionHash": "0x2058c882e166a1aeda3998752120ef4951a53b46847039212de0fcc4f8cdd401",
      "transactionIndex": "0x4",
      "blockHash": "0x5cdeb178d9ee99bcd88763013d15b616ac913a26de1246bb2ae4d4a59f038674",
      "blockNumber": "0x6e038c",
      "from": "0x4fF023009f6f8782E7B1012760D8F321DfAAa61A",
      "to": "0x138750fe5Ec71a2Ce58C36baa48d1Eb32e40D17d",
      "cumulativeGasUsed": "0xb8268",
      "gasUsed": "0x389ee",
      "contractAddress": null,
      "logs": [
        {
          "address": "0x071b84Ad9cE5E5914264625BCc653fe3d99cdd47",
          "topics": [
            "0x87babd5627be9ce0cde8e797ddace144e324ba85e58b63b7a3e98aee1a067355"
          ],
          "data": "0x000000000000000000000000117d03d41d7145682d30192b4557c80520b69aef2e1a7d4d000000000000000000000000000000000000000000000000000000000000000000000000000000004ff023009f6f8782e7b1012760d8f321dfaaa61a00000000000000000000000000000000000000000000000000000000000000a0000000000000000000000000000000000000000000000000000000000000012000000000000000000000000000000000000000000000000000000000000000010000000000000000000000000000000000000000000000000000000000000020000000000000000000000000000000000000000000000000000000000000000775696e743235360000000000000000000000000000000000000000000000000000000000000000000000000000000000000000000000000000000000000000010000000000000000000000007f392d55cb27c1124626befd4475f728285ebc5c",
          "blockHash": "0x5cdeb178d9ee99bcd88763013d15b616ac913a26de1246bb2ae4d4a59f038674",
          "blockNumber": "0x6e038c",
          "transactionHash": "0x2058c882e166a1aeda3998752120ef4951a53b46847039212de0fcc4f8cdd401",
          "transactionIndex": "0x4",
          "logIndex": "0x9",
          "removed": false
        }
      ],
      "status": "0x1",
      "logsBloom": "0x00000000000000000000000000000000000000000000000000000000000000000000000000000000000000000000000000000000000000001000000000000000000000000000000000000000000000000000000000000000000000000000000000000000000000004000000000000000000000000000000000400000000000200000000000000000000000000000000000000000000000000000000000000000000000000000000000000000000200000000000000000000000000000000000000000000000000000000000000000000000000000000020000000000000000000000000000000000000000000000000000000000000000000000000000000000",
      "type": "0x2",
      "effectiveGasPrice": "0xfb61b726"
    }
  ],
  "libraries": [],
  "pending": [],
  "returns": {},
  "timestamp": 1733318708,
  "chain": 11155111,
  "multi": false,
  "commit": "c4d3141"
}