{
  "transactions": [
    {
      "hash": "0xe8a4f7e4e3ebc0f953adb40c62e94ae7d9fa542de9658c5abdcea68e0ded5d41",
      "transactionType": "CREATE",
      "contractName": "EtherStore",
      "contractAddress": "0x833df1422dcfc65b96b4d76d787d576ae4b2f79a",
      "function": null,
      "arguments": null,
      "transaction": {
        "from": "0xbcdf0e814b7c65b238e2815289acc05d3b933624",
        "gas": "0x7a9a4",
        "value": "0x110d9316ec000",
        "input": "0x6080604052610608806100136000396000f3fe60806040526004361061004a5760003560e01c806312065fe01461004f57806327e235e3146100705780632e1a7d4d1461009d578063d0e30db0146100bf578063db11851e146100c7575b600080fd5b34801561005b57600080fd5b50475b60405190815260200160405180910390f35b34801561007c57600080fd5b5061005e61008b3660046104c0565b60006020819052908152604090205481565b3480156100a957600080fd5b506100bd6100b83660046104f0565b610104565b005b6100bd610136565b3480156100d357600080fd5b506100bd6100e23660046104c0565b600180546001600160a01b0319166001600160a01b0392909216919091179055565b60648110156101185761011561015c565b50565b60648110158015610129575060c881105b1561011557610115610311565b3360009081526020819052604081208054349290610155908490610509565b9091555050565b60008036604051602401610171929190610530565b60408051601f198184030181529181526020820180516001600160e01b031663239d5b5160e21b179052519091506000906101b0908390602401610583565b60408051601f198184030181529181526020820180516001600160e01b0316636899abb560e11b17905260015490519192506000916001600160a01b03909116906101fc9084906105b6565b6000604051808303816000865af19150503d8060008114610239576040519150601f19603f3d011682016040523d82523d6000602084013e61023e565b606091505b505090508061024c57600080fd5b336000908152602081905260409020548061026657600080fd5b604051600090339083908381818185875af1925050503d80600081146102a8576040519150601f19603f3d011682016040523d82523d6000602084013e6102ad565b606091505b50509050806102fa5760405162461bcd60e51b81526020600482015260146024820152732330b4b632b2103a379039b2b7321022ba3432b960611b60448201526064015b60405180910390fd5b505033600090815260208190526040812055505050565b60008036604051602401610326929190610530565b60408051601f198184030181529181526020820180516001600160e01b031663239d5b5160e21b17905251909150600090610365908390602401610583565b60408051601f198184030181529181526020820180516001600160e01b0316636899abb560e11b17905260015490519192506000916001600160a01b03909116906103b19084906105b6565b6000604051808303816000865af19150503d80600081146103ee576040519150601f19603f3d011682016040523d82523d6000602084013e6103f3565b606091505b505090508061040157600080fd5b336000908152602081905260409020548061041b57600080fd5b336000818152602081905260408082208290555190919083908381818185875af1925050503d806000811461046c576040519150601f19603f3d011682016040523d82523d6000602084013e610471565b606091505b50509050806104b95760405162461bcd60e51b81526020600482015260146024820152732330b4b632b2103a379039b2b7321022ba3432b960611b60448201526064016102f1565b5050505050565b6000602082840312156104d257600080fd5b81356001600160a01b03811681146104e957600080fd5b9392505050565b60006020828403121561050257600080fd5b5035919050565b8082018082111561052a57634e487b7160e01b600052601160045260246000fd5b92915050565b60208152816020820152818360408301376000818301604090810191909152601f909201601f19160101919050565b60005b8381101561057a578181015183820152602001610562565b50506000910152565b60208152600082518060208401526105a281604085016020870161055f565b601f01601f19169190910160400192915050565b600082516105c881846020870161055f565b919091019291505056fea2646970667358221220039efc9c5320d51984f2e6f960aef362ecf32d411cd6c729a71a7241a4481e3464736f6c634300081a0033",
        "nonce": "0x14",
        "chainId": "0xaa36a7"
      },
      "additionalContracts": [],
      "isFixedGasLimit": false
    },
    {
      "hash": "0xffe993f6e0ea1cace09c837d443723e93afcd5fabce2e51715d2eb7c1e880a16",
      "transactionType": "CALL",
      "contractName": "FireWallDeployer",
      "contractAddress": "0xc7f2cf4845c6db0e1a1e91ed41bcd0fcc1b0e141",
      "function": "setProject(address,bytes4,string[],address[])",
      "arguments": [
        "0x833Df1422DCFc65B96B4D76D787D576Ae4B2F79a",
        "0x2e1a7d4d",
        "[]",
        "[0xEedBb16327A403a5229b6F95217dE9f338d74846, 0x682B8e3d9d6FBcFdc80AbBbE618ef80Eab2505fb]"
      ],
      "transaction": {
        "from": "0xbcdf0e814b7c65b238e2815289acc05d3b933624",
        "to": "0xc7f2cf4845c6db0e1a1e91ed41bcd0fcc1b0e141",
        "gas": "0x7d06",
        "value": "0x0",
        "input": "0x70588565000000000000000000000000833df1422dcfc65b96b4d76d787d576ae4b2f79a2e1a7d4d00000000000000000000000000000000000000000000000000000000000000000000000000000000000000000000000000000000000000000000008000000000000000000000000000000000000000000000000000000000000000e00000000000000000000000000000000000000000000000000000000000000001000000000000000000000000000000000000000000000000000000000000002000000000000000000000000000000000000000000000000000000000000000000000000000000000000000000000000000000000000000000000000000000002000000000000000000000000eedbb16327a403a5229b6f95217de9f338d74846000000000000000000000000682b8e3d9d6fbcfdc80abbbe618ef80eab2505fb",
        "nonce": "0x15",
        "chainId": "0xaa36a7"
      },
      "additionalContracts": [],
      "isFixedGasLimit": false
    },
    {
      "hash": "0xa3efd7958941cc0c90a20d2db7563ea7c58e97ed4374615ed92300fb93953028",
      "transactionType": "CALL",
      "contractName": "FireWallDeployer",
      "contractAddress": "0xc7f2cf4845c6db0e1a1e91ed41bcd0fcc1b0e141",
      "function": "batch_setblack(address,address[])",
      "arguments": [
        "0x833Df1422DCFc65B96B4D76D787D576Ae4B2F79a",
        "[0x88386Fc84bA6bC95484008F6362F93160eF3e563, 0x717e6a320cf44b4aFAc2b0732D9fcBe2B7fa0Cf6, 0xC41B3BA8828b3321CA811111fA75Cd3Aa3BB5ACe, 0x2F12DB2869C3395A3b0502d05E2516446f71F85B, 0x4Fd709f28e8600b4aa8c65c6B64bFe7fE36bd19b, 0x2D0C79bB0604C104A5fB6F4eB0703F3154BB3db0, 0x65115c16c04f3efC82AAeDc97BE59f3F377C0D3F, 0x2954155Ab7b0942694bea4Ce44661D9a8736c688, 0x0A3214154f22A0A2b415B23A84C8169e8B636EE3, 0x0d9F60077F6aF931a8Bbf590Da0223DaCf75c7Af, 0x16CC6A92839C986682d98BC35f958f4883F9d2a8, 0x9BbF987A2551717B34E79F33b5B1008D1fA01dB9, 0x2606531493A51404A002842F56009D7E5CF4a8c7, 0x44F2a3385c8033AcD3Af97e9423A695e81ad1eb5, 0x822329Ed19E8244EfF582cC204f8554C3620c3FD, 0xd9d693A074039d026cf4EA4240B40f7d581aC802, 0x45F9D819D87b734759aFb55FE2dE5CB82A9aE672, 0xe4425bc18fA8019C68028196b546D1669C200C68, 0x9ECa9d215F8307E33Aebe50379bC5a3617EC3444, 0x57b3Bf0eC28A930D40b0D285D93c06501Cf6A090, 0xEED1dbdA4E52aB073b1f9285bE6e155d9c38d4EC, 0x7EF0A66Cd03dBb9538908a6a81D96026B71EC475, 0xf669e58cFAf9DC25DdCd0702e87d69C7B5124289, 0x7f72d758E1CF3343756D543bAdbF24212Bed8c15, 0x10b3E3a8afAf69F83600AE24dB354391D2378d2E, 0x94c914197f3ccB46be2900f4698Fd0Ef743C9695, 0x7B2617b8224FDFD1eA7234eEA573a6ff665fF63e, 0x902F40C356527a7955687113db5f9A85ad579dc1, 0x2637e6B1b523BdD0E4D4d50af5cd23dd4500a211, 0xfa9143369579DD7d760Fe20a2c09680Fc146134F, 0x454034B2b14cf2b85C730DcA9a539ca82cB6E350, 0x4B77ca23440b19D4866cCa721C801278Fd08D807, 0x34F5ECd8389AE0432aF62dc132A24118292866BB, 0x9920310382d968eBcC4b1771F41c6b304205b570, 0x1Ee8DdCa6894550dCA6916eA2AC6bAa90d11E510, 0x6CC2c704584312bDd8781b32d5d06abDa57F4230, 0x0c18A052f57e5fd03B4758A09f30F5dDc4B22EC4, 0xc935ac46B8671F0e062bAaA62A7545Ba53BB6e4c, 0x6E73460df9Fa5214e3Ef23dD4259CA09493A3594, 0xBCBa2c46958E61fa2FB4042CD7bC5816a710195B, 0xB4571d58682C0D66212EC634D495F33DE3f77ab5, 0x3ebc0Ae081bA8556a00cD122038841867181caac, 0x7bCc1D1292cf3e4b2a6B63F48335CbDE5f7545D2, 0xbf2566Af7BD15b87FC985d01f5094b89e3669E4f, 0x2e90EAc0dd9026daD28fA317782a135f28a86091, 0x37ffCb6F3ec23b7793Efc5Eaf5E71B7b406c5C06, 0x985ec0218B5e68502E230525f544285b2bdF3d7e, 0xf162068FF39CCEA4075CB95e1A30F86995B5b7ee, 0x37cd85351bf564556780CF8C1157a220F31f0cBb, 0x9E9bF9DeC12C5cEF146F93a5eeE56772Ee647FBC]"
      ],
      "transaction": {
        "from": "0xbcdf0e814b7c65b238e2815289acc05d3b933624",
        "to": "0xc7f2cf4845c6db0e1a1e91ed41bcd0fcc1b0e141",
        "gas": "0xd808",
        "value": "0x0",
        "input": "0xc20b43af000000000000000000000000833df1422dcfc65b96b4d76d787d576ae4b2f79a0000000000000000000000000000000000000000000000000000000000000040000000000000000000000000000000000000000000000000000000000000003200000000000000000000000088386fc84ba6bc95484008f6362f93160ef3e563000000000000000000000000717e6a320cf44b4afac2b0732d9fcbe2b7fa0cf6000000000000000000000000c41b3ba8828b3321ca811111fa75cd3aa3bb5ace0000000000000000000000002f12db2869c3395a3b0502d05e2516446f71f85b0000000000000000000000004fd709f28e8600b4aa8c65c6b64bfe7fe36bd19b0000000000000000000000002d0c79bb0604c104a5fb6f4eb0703f3154bb3db000000000000000000000000065115c16c04f3efc82aaedc97be59f3f377c0d3f0000000000000000000000002954155ab7b0942694bea4ce44661d9a8736c6880000000000000000000000000a3214154f22a0a2b415b23a84c8169e8b636ee30000000000000000000000000d9f60077f6af931a8bbf590da0223dacf75c7af00000000000000000000000016cc6a92839c986682d98bc35f958f4883f9d2a80000000000000000000000009bbf987a2551717b34e79f33b5b1008d1fa01db90000000000000000000000002606531493a51404a002842f56009d7e5cf4a8c700000000000000000000000044f2a3385c8033acd3af97e9423a695e81ad1eb5000000000000000000000000822329ed19e8244eff582cc204f8554c3620c3fd000000000000000000000000d9d693a074039d026cf4ea4240b40f7d581ac80200000000000000000000000045f9d819d87b734759afb55fe2de5cb82a9ae672000000000000000000000000e4425bc18fa8019c68028196b546d1669c200c680000000000000000000000009eca9d215f8307e33aebe50379bc5a3617ec344400000000000000000000000057b3bf0ec28a930d40b0d285d93c06501cf6a090000000000000000000000000eed1dbda4e52ab073b1f9285be6e155d9c38d4ec0000000000000000000000007ef0a66cd03dbb9538908a6a81d96026b71ec475000000000000000000000000f669e58cfaf9dc25ddcd0702e87d69c7b51242890000000000000000000000007f72d758e1cf3343756d543badbf24212bed8c1500000000000000000000000010b3e3a8afaf69f83600ae24db354391d2378d2e00000000000000000000000094c914197f3ccb46be2900f4698fd0ef743c96950000000000000000000000007b2617b8224fdfd1ea7234eea573a6ff665ff63e000000000000000000000000902f40c356527a7955687113db5f9a85ad579dc10000000000000000000000002637e6b1b523bdd0e4d4d50af5cd23dd4500a211000000000000000000000000fa9143369579dd7d760fe20a2c09680fc146134f000000000000000000000000454034b2b14cf2b85c730dca9a539ca82cb6e3500000000000000000000000004b77ca23440b19d4866cca721c801278fd08d80700000000000000000000000034f5ecd8389ae0432af62dc132a24118292866bb0000000000000000000000009920310382d968ebcc4b1771f41c6b304205b5700000000000000000000000001ee8ddca6894550dca6916ea2ac6baa90d11e5100000000000000000000000006cc2c704584312bdd8781b32d5d06abda57f42300000000000000000000000000c18a052f57e5fd03b4758a09f30f5ddc4b22ec4000000000000000000000000c935ac46b8671f0e062baaa62a7545ba53bb6e4c0000000000000000000000006e73460df9fa5214e3ef23dd4259ca09493a3594000000000000000000000000bcba2c46958e61fa2fb4042cd7bc5816a710195b000000000000000000000000b4571d58682c0d66212ec634d495f33de3f77ab50000000000000000000000003ebc0ae081ba8556a00cd122038841867181caac0000000000000000000000007bcc1d1292cf3e4b2a6b63f48335cbde5f7545d2000000000000000000000000bf2566af7bd15b87fc985d01f5094b89e3669e4f0000000000000000000000002e90eac0dd9026dad28fa317782a135f28a8609100000000000000000000000037ffcb6f3ec23b7793efc5eaf5e71b7b406c5c06000000000000000000000000985ec0218b5e68502e230525f544285b2bdf3d7e000000000000000000000000f162068ff39ccea4075cb95e1a30f86995b5b7ee00000000000000000000000037cd85351bf564556780cf8c1157a220f31f0cbb0000000000000000000000009e9bf9dec12c5cef146f93a5eee56772ee647fbc",
        "nonce": "0x16",
        "chainId": "0xaa36a7"
      },
      "additionalContracts": [],
      "isFixedGasLimit": false
    }
  ],
  "receipts": [
    {
      "status": "0x1",
      "cumulativeGasUsed": "0x12fb7eb",
      "logs": [],
      "logsBloom": "0x00000000000000000000000000000000000000000000000000000000000000000000000000000000000000000000000000000000000000000000000000000000000000000000000000000000000000000000000000000000000000000000000000000000000000000000000000000000000000000000000000000000000000000000000000000000000000000000000000000000000000000000000000000000000000000000000000000000000000000000000000000000000000000000000000000000000000000000000000000000000000000000000000000000000000000000000000000000000000000000000000000000000000000000000000000000",
      "type": "0x2",
      "transactionHash": "0xe8a4f7e4e3ebc0f953adb40c62e94ae7d9fa542de9658c5abdcea68e0ded5d41",
      "transactionIndex": "0xd8",
      "blockHash": "0x320877bfd260b64926a6cc13cb70b74bef6a225a506e621c2a799019930da2f7",
      "blockNumber": "0x6e156d",
      "gasUsed": "0x5e557",
      "effectiveGasPrice": "0xd95086af",
      "from": "0xbcdf0e814b7c65b238e2815289acc05d3b933624",
      "to": null,
      "contractAddress": "0x833df1422dcfc65b96b4d76d787d576ae4b2f79a"
    },
    {
      "status": "0x1",
      "cumulativeGasUsed": "0x1306477",
      "logs": [],
      "logsBloom": "0x00000000000000000000000000000000000000000000000000000000000000000000000000000000000000000000000000000000000000000000000000000000000000000000000000000000000000000000000000000000000000000000000000000000000000000000000000000000000000000000000000000000000000000000000000000000000000000000000000000000000000000000000000000000000000000000000000000000000000000000000000000000000000000000000000000000000000000000000000000000000000000000000000000000000000000000000000000000000000000000000000000000000000000000000000000000",
      "type": "0x2",
      "transactionHash": "0xffe993f6e0ea1cace09c837d443723e93afcd5fabce2e51715d2eb7c1e880a16",
      "transactionIndex": "0xda",
      "blockHash": "0x320877bfd260b64926a6cc13cb70b74bef6a225a506e621c2a799019930da2f7",
      "blockNumber": "0x6e156d",
      "gasUsed": "0x5a84",
      "effectiveGasPrice": "0xd95086af",
      "from": "0xbcdf0e814b7c65b238e2815289acc05d3b933624",
      "to": "0xc7f2cf4845c6db0e1a1e91ed41bcd0fcc1b0e141",
      "contractAddress": null
    },
    {
      "status": "0x1",
      "cumulativeGasUsed": "0x13100df",
      "logs": [],
      "logsBloom": "0x00000000000000000000000000000000000000000000000000000000000000000000000000000000000000000000000000000000000000000000000000000000000000000000000000000000000000000000000000000000000000000000000000000000000000000000000000000000000000000000000000000000000000000000000000000000000000000000000000000000000000000000000000000000000000000000000000000000000000000000000000000000000000000000000000000000000000000000000000000000000000000000000000000000000000000000000000000000000000000000000000000000000000000000000000000000",
      "type": "0x2",
      "transactionHash": "0xa3efd7958941cc0c90a20d2db7563ea7c58e97ed4374615ed92300fb93953028",
      "transactionIndex": "0xdb",
      "blockHash": "0x320877bfd260b64926a6cc13cb70b74bef6a225a506e621c2a799019930da2f7",
      "blockNumber": "0x6e156d",
      "gasUsed": "0x9c68",
      "effectiveGasPrice": "0xd95086af",
      "from": "0xbcdf0e814b7c65b238e2815289acc05d3b933624",
      "to": "0xc7f2cf4845c6db0e1a1e91ed41bcd0fcc1b0e141",
      "contractAddress": null
    }
  ],
  "libraries": [],
  "pending": [],
  "returns": {},
  "timestamp": 1733377398,
  "chain": 11155111,
  "commit": "8240aaa"
}